:030000000200BE3D
:0C00BE00787FE4F6D8FD7581080200038D
:1000AA00C0F9A4B0999282F88090C0F9A4B099924C
:0400BA0082F88090B8
:10008A00E4FDFCC3ED9FEC9E5015E4FBFA0BBB00AC
:0F009A00010AEB647B4A70F50DBD00010C80E498
:0100A9002234
:10000300E4F9F50875A0FFE590B4FE1BE964096007
:10001300167F0A7E0012008A09E99000AA93F580F0
:10002300E99000B493F580E59064FE701AB909175E
:100033007F0AFE12008AE4F905089000AA93F5806E
:10004300E99000B493F580E590B4FD19E960167F5B
:100053000A7E0012008A19E99000AA93F580E990BC
:1000630000B493F580E590B4FE9DE9709A7F0AFE93
:1000730012008A79091508E99000AA93F580E9909E
:0700830000B493F5808080BA
:00000001FF
