:0300000002008576
:0C008500787FE4F6D8FD758107020003C7
:10003700E4FDFCC3ED9FEC9E5015E4FBFA0BBB00FF
:0F004700010AEB647B4A70F50DBD00010C80E4EB
:010056002287
:05009100C2B2C2B6225C
:1000570075A0FF05A0E5A0C394FF40F77F027E00CF
:0D00670012003715A0E5A0D3940050F72239
:10007400E4F5A07F46FE12003775A0FF7F3C020026
:010084003744
:100003001200912090157F057E0012003720900B7F
:100013003090FD30910512005780F82091157F052F
:100023007E0012003720910B3091FD3090051200B5
:040033007480F822BB
:00000001FF
