:030000000201A357
:0C01A300787FE4F6D8FD75810F020003A0
:0C01AF006C696768743A00543A002E0036
:1000FA00D3EF9400EE940040147D6E7C00ED1D70E9
:0D010A00011CED4C70F7EF1F70E61E80E346
:0101170022C5
:10019200C285C287D286D285AFA0EF20E7F2C285A0
:0101A200223A
:0600DB00AB05EF2480FFDD
:1000E100AE07120192C285C287C2868EA0D2850058
:0900F100C2857F017E000200FAC5
:100118007F381200E17F0C1200E17F061200E17FB8
:0B012800011200E17F017E000200FADE
:0E00B40075F00AEB8475F00A84E5F02430FF45
:1000C200AE07120192C285D287C2868EA0D2850067
:0900D200C2857F017E000200FAE4
:100082008B0D8A0E890F1200E1AB0DAA0EA90F1279
:100092000167D39400401A050FE50F7002050E1494
:1000A200F9120167FF1200C27F017E001200FA807E
:0200B200D82252
:10014E001200DB75F0641200B71200B4EB75F00A02
:09015E0084E5F02430FF0200C228
:08013300E50C75F06484ADF0E9
:10013B001200DB1200B4EB75F00A84E5F02430FFFB
:03014B000200C2ED
:10018000758920E4F587759850758DF4758BF4D2D8
:020190008E22BD
:0801BB008F993099FDC29922D1
:0701C3003098FDC298AF99CE
:0101CA002212
:10000300120118120180C280C281C2827BFF7A0171
:1000130079AF7F801200827BFF7A0179B67FC012AD
:1000230000827BFF7A0179B97FC4120082C2B3D206
:10003300B3C2B3B2B520B4F5D2B6AF90E48F0BF52B
:100043000AF509F508C2B6AD0B7F0612014EAF0BD8
:100053001201BB7F057E001200FA1201C38F0CE56B
:100063000CC39464400BE50C94C850057F42120105
:0F00730033E50CC394C840BB7F4512013380B402
:10016700BB010689828A83E0225002E722BBFE0296
:09017700E32289828A83E49322C9
:00000001FF
