:03000000020003F8
:0C000300787FE4F6D8FD75810D02004AFC
:0A01A600C0F9A4B0999282F880908D
:0601B000040982F8C09270
:10018600E4FDFCC3ED9FEC9E5015E4FBFA0BBB00AF
:0F019600010AEB647B4A70F50DBD00010C80E49B
:0101A5002237
:100153007590F0E59054F064F060277F0A7E0012FA
:100163000186E59054F064F06018E59054F0FF7553
:10017300900FE590540FFEE590540FFDBD0FF8EF7F
:020183002EFF4D
:010185002257
:1000F5001201538F08E4FDFC7F0174092DF8E6F524
:10010500808FA07801EF08800123D8FDFFE4F5A0DA
:100115000DBD00010CED64044C70DFE50864DE6084
:1001250005E508B47B0875A001750D09800AE50889
:10013500B4BDBD75A001150DAF0DEF3395E0FE748F
:0D014500A62FF58274013EF583E493F5804A
:01015200228A
:10008F0075A0011201538F08E5082485601524BE61
:10009F00600A24D2602A240D7029800775A00115EB
:1000AF000D800675A001750D09AF0DEF3395E0FEBC
:1000BF0074A62FF58274013EF583E493F5808003D7
:1000CF001200F5C3E50D6480948050B7750D09AF2C
:1000DF000DEF3395E0FE74A62FF58274013EF58384
:0600EF00E493F580809D02
:10000F0002008FE493A3F8E493A34003F68001F278
:10001F0008DFF48029E493A3F85407240CC8C333F2
:10002F00C4540F4420C8834004F456800146F6DFC1
:10003F00E4800B01020408102040809001B0E47EA0
:10004F00019360BCA3FF543F30E509541FFEE493B6
:10005F00A360010ECF54C025E060A840B8E493A37D
:10006F00FAE493A3F8E493A3C8C582C8CAC583CAA8
:10007F00F0A3C8C582C8CAC583CADFE9DEE780BE60
:0101B6000048
:00000001FF
