:03000000020716DE
:0C071600787FE4F6D8FD75812A02075DAB
:100813002A00503736202020202000583736202049
:1008230020202000573A33303A3030005430300023
:10083300373600523A30353A303000533A003A00F6
:10084300533A30303A30300057656C6C446F6E6504
:1008530000200021202020200059553A30353A301D
:100863003000212020202020005400573A00523A23
:010873000084
:10098F00010A1E010B05011700011C0001100501D2
:10099F000F05010D00041200000000010C00011EE4
:0D09AF0000011F00011D000418BEBEBEBEE9
:0409E2007F057E000F
:1009E600E4FDFCC3ED9FEC9E5015E4FBFA0BBB0047
:0F09F600010AEB647B4A70F50DBD00010C80E433
:010A050022CE
:100A5300C285C287D286D285AFA0EF20E7F2C285D6
:010A63002270
:100A2100AE07120A53C285C287C2868EA0D2850044
:090A3100C2857F017E000209E686
:100A06007F38120A217F0C120A217F06120A217FE3
:0B0A160001120A217F017E000209E6A8
:100A3A00AE07120A53C285D287C2868EA0D285001B
:090A4A00C2857F017E000209E66D
:0B091F001209E67BFF7A0879417FCCCB
:10092A008B288A29892A120A21AB28AA29A92A12DC
:10093A0008CED39400401A052AE52A700205291424
:10094A00F91208CEFF120A3A7F017E001209E680E8
:02095A00D822A1
:0409BD00AD1D7F4AA3
:1009C100A905EF2480FF120A21E975F00A84243079
:1009D100FF120A3AE975F00A84E5F02430FF020AB1
:0109E1003ADB
:10095C007590F0E59054F064F060277F0A7E0012E9
:10096C0009E6E59054F064F06018E59054F0FF75DA
:10097C00900FE590540FFEE590540FFDBD0FF8EF6E
:02098C002EFF3C
:01098E002246
:100A6400C2B67F047E001209E6D2B61209E6C2B607
:010A7400225F
:1005CF00E4F521E521C3940440030206CE12095C31
:1005DF00EF1208F9069F77067B7B06577D06337E61
:1005EF000696B70672BB064EBD062ABE068DD70607
:1005FF0069DB0645DD0621DE0684E70660EB063C77
:10060F00ED0617EE000006C474122521F876EE02EF
:10061F0006A674122521F876DE807C74122521F847
:10062F0076BE807374122521F8767E806A74122547
:10063F0021F876ED806174122521F876DD805874EB
:10064F00122521F876BD804F74122521F8767D8012
:10065F004674122521F876EB803D74122521F87629
:10066F00DB803474122521F876BB802B7412252180
:10067F00F8767B802274122521F876E780197412A0
:10068F002521F876D7801074122521F876B78007C8
:10069F0074122521F876770521E521248BFF7BFF46
:1006AF007A08791312092AE521248BFF7BFF7A0838
:1006BF00791312092A7F647E001209E60205D2E53A
:1006CF001865127029E51965137023E51AB5141E04
:1006DF00E51BB515197BFF7A0879157F8C12092A4E
:1006EF007BFF7A0879157F8C12092A7F00227BFF06
:1006FF007A08791E7F8C12092A7BFF7A08791E7F70
:06070F008C12092A7F0193
:0107150022C1
:10087400120A06C3E50D64809485504D750A1E75F1
:100884000B05E4F517F511F508F5097BFF7A0879EE
:10089400277F8012092A7BFF7A08792F7F87120924
:1008A4002A7BFF7A0879337F8D12092A7BFF7A0825
:1008B40079367FC012092A7BFF7A08793E7FC812F5
:0A08C400092A120922050D80AA225C
:10001E00120A06D2AF758901D2A9758C3CD28CC258
:10002E008C758911D2AB758D3CD28ED28E7BFF7AB8
:10003E000879277F8012092A7BFF7A08792F7F871C
:10004E0012092A7BFF7A0879337F8D12092A7BFFEA
:10005E007A0879367FC012092A7BFF7A0879437FA6
:10006E00C80201B9308C03751601C3E5176480947C
:10007E008A5003020143E4F50D120A06E4F517C295
:10008E008C7BFF7A08793E7FC812092A7BFF7A089B
:10009E0079417FCC8013E52064EE601212095C8FEB
:1000AE00207BFF7A08794B7F8312092A80E8120A97
:1000BE0006C3E50D64809483507B750A02750B01AF
:1000CE00E4F517F511F508F5097F0AFE1209E67B2E
:1000DE00FF7A0879277F8012092A7F027E00120993
:1000EE00E67BFF7A0879367FC012092A7F027E00EE
:1000FE001209E67BFF7A08792F7F8712092A7F0281
:10010E007E001209E67BFF7A0879337F8D12092A69
:10011E007F027E001209E67BFF7A08793E7FC812C5
:10012E00092A7F027E0012091F7F027E001209E655
:10013E00050D0200BFE509B50A10C3E51C648094E5
:10014E00945007120A64051C80F0E50F7015D3E574
:10015E001C64809480400C120A64151C1209E2057E
:10016E000F80EB12095C8F20E5201208F903D67779
:10017E0003037B02A77D01F27E034FB702F2BB029F
:10018E0096BD01E5BE0332D702D5DB0278DD01BF95
:10019E00DE0324E702C4EB023BED01AFEE000000EC
:1001AE0072D28C7BFF7A0879547F8C12092A020056
:1001BE0072C28C7BFF7A0879567F8C12092A7BFFDC
:1001CE007A0879567F8C12092A1209E21205CFEFAE
:1001DE0024FF928C020072E5166401700302007215
:1001EE00050A8042E51664017003020072150AAF1B
:1001FE000BEF3395E0FE7C007D051208E7AD0AEDAE
:10020E003395E0FCC3ED9FEE6480F8EC648098506B
:10021E0002050A7F027E001209E6C3E50A64809495
:10022E00805003E4F50AAD0A7F0202031EE5166450
:10023E00017003020072050BAF0BEF3395E0FE7CED
:10024E00007D051208E7AD0AED3395E0FCD3EF9D76
:10025E00EC6480F8EE6480984002150B7F027E00FD
:10026E001209E6AD0B7F4202031EE5166401700310
:10027E00020072150BC3E50B648094805003E4F505
:10028E000BAD0B7F4202031EE516640170030200E4
:10029E00720517AD177F088077E5166401700302AB
:1002AE0000721517C3E517648094805003E4F517A8
:1002BE00AD177F08805AE5166401700302007205BF
:1002CE001FAD1F7F4D8049E5166401700302007259
:1002DE00151FC3E51F648094805003E4F51FAD1F06
:1002EE007F4D802CE51664017003020072051DAD72
:1002FE001D7F4A801BE51664017003020072151DF6
:10030E00C3E51D648094805003E4F51DAD1D7F4A46
:10031E001209C1020072E516640170030200720533
:10032E0010020072E516640170030200721510C30C
:10033E00E510648094804003020072E4F510020020
:10034E0072C28CE4F50D120A067BFF7A08793E7FA5
:10035E00C812092A1209227BFF7A08795C7F811262
:10036E00092A12095C8F20C3E5106480F8E51D642C
:10037E008098400B1208741209E2D28C020072E5CA
:10038E0020B4EE06120874020072E520B4BB050517
:10039E001D1209BDE520B47B11151DC3E51D64803A
:1003AE0094805003E4F51D1209BDE520B4E7020563
:1003BE0010E52064D770921510C3E5106480948008
:1003CE005087E4F510020357C28C7BFF7A087965DB
:1003DE007F8C12092A7BFF7A0879567F8C12092AA4
:1003EE001209E21205CF8F0EE4F50DF516E50E603B
:1003FE000302047F120A06C3E50D64809483400352
:10040E00020072750A1E750B05E4F517F511F50855
:10041E00F509F50CF51EF51FF51D7F05FE1209E613
:10042E007BFF7A0879277F8012092A1209E27BFF67
:10043E007A08792F7F8712092A1209E27BFF7A0840
:10044E0079337F8D12092A1209E27BFF7A087936F9
:10045E007FC012092A1209E27BFF7A08793E7FC813
:10046E0012092A1209E212091F1209E2050D0204ED
:06047E0005D28C020072A1
:03000B0002048468
:10048400C0E0C0F0C083C082C0D075D000C000C03E
:1004940001C002C003C004C005C006C007758C3C7F
:1004A400D28C05117BFF7A08796C7F8712092A7B2D
:1004B400FF7A08796E7F8012092A7BFF7A087941D6
:1004C4007F8412092A7BFF7A0879337F8D12092AE7
:1004D4007BFF7A0879717FC012092A7BFF7A087939
:1004E400417FC412092AE511B401057511000508FC
:1004F400E508B43C057508000509C3E50A6480F8FD
:10050400E5096480985017C3E50A950914FD7F0234
:100514001209C1C3743B9508FD7F050205B1C3E50B
:100524000A6480F8E5096480984040AF0BEF339586
:10053400E0FEAD0AED3395E0FCED2FFFEC3EFEADA1
:1005440009ED3395E0FCC3ED9FEE6480F8EC648024
:10055400985018E50A250BC3950914FD7F4212092A
:10056400C1C3743B9508FD7F458042AF0BEF3395C3
:10057400E0FEAD0AED3395E0FCED2FFFEC3EFEAD61
:1005840009ED3395E0FCC3ED9FEE6480F8EC6480E4
:1005940098401DAD0A7F021209C1AD0B7F421209BA
:1005A400C1750900750F000517AD177F081209C141
:1005B400D007D006D005D004D003D002D001D0009B
:0B05C400D0D0D082D083D0F0D0E03245
:03001B000207A237
:1007A200C0E0C0F0C083C082C0D075D000C001C01C
:1007B20002C003C004C005C006C007758D3CD28EBE
:1007C200050CE50CB40105750C00051EE51EB43CD4
:1007D20005751E00051FE51FB43C05751F00051DAC
:1007E2001209221209BDAD1F7F4D1209C17BFF7A8A
:1007F2000879547FCF12092AD007D006D005D00439
:10080200D003D002D001D0D0D082D083D0F0D0E0BB
:0108120032B3
:1007220002001EE493A3F8E493A34003F68001F2CF
:1007320008DFF48029E493A3F85407240CC8C333D8
:10074200C4540F4420C8834004F456800146F6DFA7
:10075200E4800B010204081020408090098FE47E9F
:10076200019360BCA3FF543F30E509541FFEE4939C
:10077200A360010ECF54C025E060A840B8E493A363
:10078200FAE493A3F8E493A3C8C582C8CAC583CA8E
:10079200F0A3C8C582C8CAC583CADFE9DEE780BE46
:0109BC00003A
:1008CE00BB010689828A83E0225002E722BBFE0228
:0908DE00E32289828A83E493225B
:1008E700EF8DF0A4A8F0CF8CF0A428CE8DF0A42E25
:0208F700FE22DF
:1008F900D083D082F8E4937012740193700DA3A38E
:1009090093F8740193F5828883E4737402936860A1
:06091900EFA3A3A380DFA1
:00000001FF
