:030000000208FFF4
:0C08FF00787FE4F6D8FD75810A02082E0F
:1008D90057656C636F6D650048617262696E20438C
:0508E90048494E4100EA
:10082E001208737BFF7A0879D97F851208007BFF47
:10083E007A0879E17FC21208001208547F0112086B
:06084E008E12085480DD4B
:040854007F647E003F
:100858007DFAD3EF9400EE9400400FDDFE7DF9DDC4
:0A086800FE7DFAEF1F70EB1E80E822
:010872002263
:1008EE00C2A2C2A0D2A1D2A2AF80EF20E7F2C2A2D2
:0108FE0022D7
:10088E00AE071208EEC2A2C2A0C2A18E80D2A200F2
:09089E00C2A27F017E000208588D
:1008A700AE071208EEC2A2D2A0C2A18E80D2A200C9
:0908B700C2A27F017E0002085874
:100873007F3812088E7F0C12088E7F0612088E7F37
:0B0883000112088E7F017E0002085861
:100800008B088A09890A12088EAB08AA09A90A125C
:1008100008C0D394004016050AE50A7002050914C1
:0E082000F91208C0FF1208A712085480DC224B
:1008C000BB010689828A83E0225002E722BBFE0236
:0908D000E32289828A83E4932269
:00000001FF
