:0300000002009665
:0C009600787FE4F6D8FD7581220200DDC1
:1001D200636F756E743A200073313A2B2073323A92
:0701E2002D2073333A720077
:10016C000B0830313233343536373839000B133015
:0A017C00313233343536373839009C
:1001E900E4FDEDC39FE49E5009E4FC0CBC7BFC0DCF
:0201F90080F094
:0101FB0022E1
:1001FC00C2A2C2A0D2A1D2A2AF80EF20E7F2C2A2CB
:01020C0022CF
:10018700AE071201FCC2A2C2A0C2A18E80D2A200F9
:09019700C2A27F017E000201E911
:10014D007F38120187007F0C120187007F06120194
:0F015D0087007F01120187007F017E000201E908
:1001A000AE071201FCC2A2D2A0C2A18E80D2A200D0
:0901B000C2A27F017E000201E9F8
:100122008B208A218922120187AB20AA21A92212BF
:1001320001B9D3940040130522E52270020521146F
:0B014200F91201B9FF1201A080DF22BA
:10000300E4F51EF51F12014D7BFF7A0179D27F8043
:100013001201227BFF7A0179DA7FC0120122E59077
:10002300B4FE20E51E6409601A7F0A7E001201E90E
:10003300E590B4FE0EE51E64096008E59064FE6079
:10004300FA051EE590B4FD06E51E6002151EE59057
:10005300B4FB03E4F51EE590B4FE0AE51EB40905FE
:10006300051FE4F51EE590B4FD09E51E7005151F97
:10007300751E097F871201877408251FF8E6FF1292
:1000830001A07F881201877408251EF8E6FF12017C
:03009300A0808BBF
:1000A200020003E493A3F8E493A34003F68001F271
:1000B20008DFF48029E493A3F85407240CC8C3335F
:1000C200C4540F4420C8834004F456800146F6DF2E
:1000D200E4800B010204081020408090016CE47E51
:1000E200019360BCA3FF543F30E509541FFEE49323
:1000F200A360010ECF54C025E060A840B8E493A3EA
:10010200FAE493A3F8E493A3C8C582C8CAC583CA14
:10011200F0A3C8C582C8CAC583CADFE9DEE780BECC
:010186000078
:1001B900BB010689828A83E0225002E722BBFE0244
:0901C900E32289828A83E4932277
:00000001FF
