:03000000020800F3
:0C080000787FE4F6D8FD75810D020847F2
:1009EE003230313734313035353037360054494DA9
:0809FE00452032333A3330008A
:090A170001081E010917010A0083
:04091F007F017E00D6
:10092300E4FDFCC3ED9FEC9E5015E4FBFA0BBB000A
:0F093300010AEB647B4A70F50DBD00010C80E4F6
:010942002292
:100A0600C2A2C2A0D2A1D2A2AF80EF20E7F2C2A2B8
:010A160022BD
:1009A300AE07120A06C2A2C2A0C2A18E80D2A200C2
:0909B300C2A27F017E00020923AB
:100988007F381209A37F0C1209A37F061209A37FDF
:0B099800011209A37F017E0002092369
:1009BC00AE07120A06C2A2D2A0C2A18E80D2A20099
:0909CC00C2A27F017E0002092392
:1008F1008B0B8A0C890D1209A3AB0BAA0CA90D1243
:1009010009D5D394004016050DE50D7002050C14B0
:0E091100F91209D5FF1209BC12091F80DC2261
:10096700A905EF2480FF1209A3E975F00A84243052
:10097700FF1209BCE975F00A84E5F02430FF02098B
:01098700BCB3
:10088C001209887BFF7A0979EE7F821208F17BFFCF
:10089C007A0979FB7FC31208F1758901D2AFD2A90D
:1008AC00758C3C758AB020A302D28C20A40B120943
:1008BC001F20A40330A4FD050920A51912091F202F
:1008CC00A50330A5FD74052508F508C3943C400527
:1008DC00E4F5080509AD097F48120967AD087F4B9F
:0508EC0012096780C144
:03000B00020943A4
:10094300C0E0C0D0758C3C758AB0050AE50AB414C2
:1009530005750A001508E508700575083B1509D0EB
:04096300D0D0E032DE
:10080C0002088CE493A3F8E493A34003F68001F26E
:10081C0008DFF48029E493A3F85407240CC8C333ED
:10082C00C4540F4420C8834004F456800146F6DFBC
:10083C00E4800B0102040810204080900A17E47E2B
:10084C00019360BCA3FF543F30E509541FFEE493B1
:10085C00A360010ECF54C025E060A840B8E493A378
:10086C00FAE493A3F8E493A3C8C582C8CAC583CAA3
:10087C00F0A3C8C582C8CAC583CADFE9DEE780BE5B
:010A200000D5
:1009D500BB010689828A83E0225002E722BBFE0220
:0909E500E32289828A83E4932253
:00000001FF
