:030000000208FFF4
:0C08FF00787FE4F6D8FD758107020880C0
:100800007FFF7FFF7FFF03E07BEF7BEF03E07BEF6A
:100810007BEF7BEF03E07BEF7FBF7FBFFF00FFFF3E
:10082000FFFF03F0FFFBFFFDFFFE7FFF7FFF7FDF8A
:1008300000807FFF7FFF7FFF7FFF7FFF5FFFBFFFA6
:10084000F7FBF7FBF7FB4080F7FBD7FB67C073EFC5
:10085000F4EEF7F6F7F9F7F9F7F6778F95DFFBFF88
:100860007FFF7FFB7FF77FFF00807FFF3FFE5FFD05
:100870005FFB6FF777E77B8F7CDF7FFF7FFFFFFFFB
:1008E8007DFAD3EF9400EE9400400BDDFE7D64EFBB
:0608F8001F70EF1E80ECF2
:0108FE0022D7
:10088000E4FCE4FBE4FAEA540FF59075F020ECA4E4
:10089000F58285F08375F002EA12090BE5822400E7
:1008A000F582E5833408F583E493F58075F020EC58
:1008B000A4F58285F08375F002EA12090BE5822423
:1008C00001F582E5833408F583E493F5A07F047E87
:1008D000001208E87580FF75A0FF0ABA10A80BBBCC
:0808E00028A20CBC049C8098C6
:0C090B00A42582F582E5F03583F58322F7
:00000001FF
