:03000000020145B5
:0C014500787FE4F6D8FD75812002018C63
:0803D40054003A004C002E0019
:10037E00C180010D0001080002090000020B0000FF
:08038E00021A00190218000F09
:1002E800E4FDFCC3ED9FEC9E5015E4FBFA0BBB004C
:0F02F800010AEB647B4A70F50DBD00010C80E438
:0103070022D3
:10039700E4FDFCC3ED9FEC9E50070DBD00010C80F2
:0103A700F263
:0103A8002232
:1003A900C285C287D286D285AFA0EF20E7F2C28587
:0103B9002221
:06032800A905EF2480FF8F
:10032E00AE071203A9C285C287C2868EA0D28500EF
:09033E00C2857F017E000202E885
:100363007F3812032E7F0C12032E7F0612032E7F7B
:0B0373000112032E7F017E000202E851
:030347002430FF60
:10034A00AE071203A9C285D287C2868EA0D28500C3
:09035A00C2857F017E000202E869
:06023F007BFF7A0379D673
:100245008B1C8A1D891E12032EAB1CAA1DA91E120A
:1002550001D1D39400401A051EE51E7002051D1438
:10026500F91201D1FF12034A7F017E001202E880D4
:02027500D8228D
:1002A000120328E975F06484120347E975F00A84A3
:1002B00075F00A84E5F0120347E975F00A84E5F069
:0602C0002430FF02034A96
:0A03BA00120328E92430FF02034A71
:1002C600E4FBD2B77F08FE120397C2B77F50120332
:1002D60097D2B77F05120397A2B7E433FB7F1402C8
:0202E60003977C
:10027700E4FA7B08D2B77F017E00120397C2B7EA80
:10028700C313FAD2B730B7034302807F047E00124C
:080297000397DBE0AF027E00DB
:01029F00223C
:02030800AB0741
:10030A007A08C2B7EB1392B77F057E00120397D221
:0E031A00B7EBC313FBDAEB7F047E0002039700
:100003001202C67FCC1203087F441203087F7D7E51
:10001300001202E81202C67FCC1203087FBE12034D
:10002300081202778F0D1202778F08E508D3947FA9
:10003300400B630DFFE508F404F508C200E50DC4A9
:10004300540FFD7C00E50875F010A4AEF02DF510FB
:10005300EC3EF50FFEAF107D0A1201EA8E138F14EA
:10006300AE0FAF107C007D0A1201EA8C158D16E5E8
:100073000D540FFD75F00AA4FFE5F0C4F854F0C861
:10008300EFC4540F48F511ED75F064A4FFE5F0C417
:10009300F854F0C8EFC4540F4875F00A8485F01281
:0B00A300E51175F00AA42512F50E22ED
:0803C4008F99C39299C299229E
:0703CC003098FDC298AF99C3
:0103D3002207
:1000AE00120363758920758DF4758BF4E4F58775ED
:1000BE009850D28E120003E5102464FF1203C47F01
:1000CE00057E001202E8E50E24C8FF1203C47F0568
:1000DE001202E81203CC8F17AD177F421202A07BDB
:1000EE00FF7A0379D47F801202457F8112023F7F0F
:1000FE00C112023F7BFF7A0379D87FC01202457F7F
:10010E008212032EE5142430FF12034AE516243022
:10011E00FF12034A7BFF7A0379DA7F841202457F4E
:10012E008512032EE5112430FF12034AE512243006
:07013E00FF12034A0200C298
:100151000200AEE493A3F8E493A34003F68001F216
:1001610008DFF48029E493A3F85407240CC8C333AF
:10017100C4540F4420C8834004F456800146F6DF7E
:10018100E4800B010204081020408090037EE47E8D
:10019100019360BCA3FF543F30E509541FFEE49373
:1001A100A360010ECF54C025E060A840B8E493A33A
:1001B100FAE493A3F8E493A3C8C582C8CAC583CA65
:1001C100F0A3C8C582C8CAC583CADFE9DEE780BE1D
:010396000066
:1001D100BB010689828A83E0225002E722BBFE022C
:0901E100E32289828A83E493225F
:1001EA00BC000BBE0029EF8DF084FFADF022E4CCF9
:1001FA00F875F008EF2FFFEE33FEEC33FCEE9DECC2
:10020A00984005FCEE9DFE0FD5F0E9E4CEFD22ED07
:10021A00F8F5F0EE8420D21CFEADF075F008EF2F51
:10022A00FFED33FD4007985006D5F0F222C398FD42
:05023A000FD5F0EA22DF
:00000001FF
